:020000040000FA
:03000000000001FC
:030001000007FBFA
:03000200000FEA02
:030003000017CD16
:03000400001FA337
:0300050000276E63
:03000600002F2D9B
:030007000036E1DF
:03000800003E882F
:0300090000462787
:03000A00004DB9ED
:03000B0000553F5E
:03000C00005CBBDA
:03000D0000642C60
:03000E00006B93F1
:03000F000072EF8D
:03001000007A3F34
:03001100008184E7
:030012000088C0A3
:03001300008FF06B
:0300140000971939
:03001500009E3416
:0300160000A548FA
:0300170000AC4FEB
:0300180000B34CE6
:0300190000BA40EA
:03001A0000C12AF8
:03001B0000C80A10
:03001C0000CEE330
:03001D0000D5AD5E
:03001E0000DC7192
:03001F0000E32AD1
:0300200000E9DC18
:0300210000F0826A
:0300220000F71FC5
:0300230000FDB32A
:0300240001043E96
:03002500010AC30A
:0300260001113B8A
:030027000117AA14
:03002800011E10A6
:0300290001246C43
:03002A00012AC1E7
:03002B0001310F91
:03002C0001375346
:03002D00013D8D05
:03002E000143C0CB
:03002F000149E79D
:0300300001500973
:0300310001562352
:03003200015C343A
:0300330001623B2C
:0300340001683C24
:03003500016E3524
:030036000174262C
:03003700017A0F3C
:03003800017FEF56
:030039000185C47A
:03003A00018B95A2
:03003B0001915CD4
:03003C0001971C0D
:03003D00019CD54E
:03003E0001A28A92
:03003F0001A832E3
:0300400001ADD53A
:0300410001B36E9A
:0300420001B904FD
:0300430001BE8C6F
:0300440001C412E2
:0300450001C98F5F
:0300460001CF03E4
:0300470001D4726F
:0300480001D9DB00
:0300490001DF3D97
:03004A0001E49638
:03004B0001E9EADE
:03004C0001EF348D
:03004D0001F47942
:03004E0001F9B500
:03004F0001FEEDC2
:0300500002041F88
:030051000209465B
:03005200020E6833
:0300530002138510
:0300540002189BF4
:03005500021DADDC
:030056000222B3D0
:030057000227B4C9
:03005800022CB3C4
:030059000231A7CA
:03005A00023698D3
:03005B00023B7FE6
:03005C00024062FD
:03005D0002453D1C
:03005E00024A143F
:03005F00024EE569
:030060000253AF99
:03006100025870D2
:03006200025D300C
:030063000261E94E
:0300640002669C95
:03006500026B46E5
:03006600026FEC3A
:0300670002748E92
:0300680002792AF0
:03006900027DBE57
:03006A0002824BC4
:03006B000286D931
:03006C00028B5CA8
:03006D00028FD827
:03006E00029452A7
:03006F000298C62E
:03007000029D34BA
:0300710002A19B4E
:0300720002A5FFE5
:0300730002AA5C82
:0300740002AEB524
:0300750002B308CB
:0300760002B75777
:0300770002BB9E2B
:0300780002BFE2E2
:0300790002C4229C
:03007A0002C85A5F
:03007B0002CC8E26
:03007C0002D0BFF0
:03007D0002D4E7C3
:03007E0002D90E96
:03007F0002DD2E71
:0300800002E14753
:0300810002E55E37
:0300820002E96F21
:0300830002ED7D0E
:0300840002F18303
:0300850002F585FC
:0300860002F983F9
:0300870002FD7BFC
:03008800030174FD
:0300890003056309
:03008A0003094D1A
:03008B00030D342E
:03008C0003111647
:03008D000314F564
:03008E000318CD87
:03008F00031CA1AE
:03009000032070DA
:0300910003243D08
:030092000328043C
:03009300032BC478
:03009400032F82B5
:03009500033340F2
:030096000336F539
:03009700033AA683
:03009800033E51D3
:030099000341FB25
:03009A0003459E7D
:03009B00034942D4
:03009C00034CDE34
:03009D0003507697
:03009E0003540AFE
:03009F0003579A6A
:0300A000035B24DB
:0300A100035EAB50
:0300A200036231C5
:0300A3000365B141
:0300A40003692CC1
:0300A500036CA346
:0300A600037016CE
:0300A70003738858
:0300A8000376F3E9
:0300A900037A5B7C
:0300AA00037DC013
:0300AB0003811FAF
:0300AC0003847F4B
:0300AD000387D5F1
:0300AE00038B2A97
:0300AF00038E7C41
:0300B0000391C9F0
:0300B100039514A0
:0300B20003985C54
:0300B300039BA00C
:0300B400039EE0C8
:0300B50003A21A89
:0300B60003A5514E
:0300B70003A88516
:0300B80003ABB6E1
:0300B90003AEE4AF
:0300BA0003B20E80
:0300BB0003B53654
:0300BC0003B8582E
:0300BD0003BB770B
:0300BE0003BE95E9
:0300BF0003C1AECC
:0300C00003C4C4B2
:0300C10003C7D59D
:0300C20003CAE38B
:0300C30003CDF07A
:0300C40003D0F571
:0300C50003D3FB67
:0300C60003D6FD61
:0300C70003D9FD5D
:0300C80003DCF75F
:0300C90003DFED65
:0300CA0003E2E767
:0300CB0003E5D476
:0300CC0003E8C284
:0300CD0003EBAE94
:0300CE0003EE98A6
:0300CF0003F17CBE
:0300D00003F460D6
:0300D10003F73DF5
:0300D20003FA1B13
:0300D30003FCF338
:0300D40003FFC85F
:0300D50000029D89
:0300D60000056BB7
:0300D700000837E7
:0300D800000B0317
:0300D900000DCA4D
:0300DA0000108D86
:0300DB0000134FC0
:0300DC0000160CFF
:0300DD000018C642
:0300DE00001B7E86
:0300DF00001E38C8
:0300E0000020E716
:0300E10000239960
:0300E200002647AE
:0300E3000028F200
:0300E400002B9A54
:0300E500002E3DAD
:0300E6000030E007
:0300E70000337F64
:0300E80000361CC3
:0300E9000038B527
:0300EA00003B4D8B
:0300EB00003DDFF6
:0300EC000040765B
:0300ED00004304C9
:0300EE0000459139
:0300EF0000481CAA
:0300F000004AA122
:0300F100004D2699
:0300F200004FAA12
:0300F3000052298F
:0300F4000054A90C
:0300F5000057228F
:0300F60000599915
:0300F700005C1199
:0300F800005E8423
:0300F9000060F3B1
:0300FA000063623E
:0300FB000065D0CD
:0300FC0000683960
:0300FD00006A9FF7
:0300FE00006D068C
:0300FF00006F6827
:030100000071C6C5
:0301010000742562
:0301020000768202
:030103000078DAA7
:03010400007B324B
:03010500007D86F4
:03010600007FD7A0
:030107000082274C
:03010800008475FB
:030109000086BDB0
:03010A0000890564
:03010B00008B4C1A
:03010C00008D95CE
:03010D00008FD68A
:03010E0000921646
:03010F0000945207
:0301100000968CCA
:030111000098C98A
:03011200009B004F
:03011300009D301C
:03011400009F65E4
:0301150000A197AF
:0301160000A3C47F
:0301170000A5F14F
:0301180000A81C20
:0301190000AA43F6
:03011A0000AC69CD
:03011B0000AE8DA6
:03011C0000B0AF81
:03011D0000B2D05D
:03011E0000B4EE3C
:03011F0000B70A1C
:0301200000B92300
:0301210000BB3AE6
:0301220000BD52CB
:0301230000BF64B6
:0301240000C1789F
:0301250000C3898B
:0301260000C5977A
:0301270000C79F6F
:0301280000C9AA61
:0301290000CBB454
:03012A0000CDBB4A
:03012B0000CFBE44
:03012C0000D1C03F
:03012D0000D3C23A
:03012E0000D5BF3A
:03012F0000D7BB3B
:0301300000D9B73C
:0301310000DBB23E
:0301320000DDA548
:0301330000DF9C4E
:0301340000E18F58
:0301350000E38361
:0301360000E5736E
:0301370000E7617D
:0301380000E94D8E
:0301390000EB35A3
:03013A0000ED1DB8
:03013B0000EF04CE
:03013C0000F0EBE5
:03013D0000F2CD00
:03013E0000F4AD1D
:03013F0000F68E39
:0301400000F86D57
:0301410000FA4B76
:0301420000FC2599
:0301430000FDFEBE
:0301440000FFD6E3
:030145000101AC09
:0301460001037D35
:030147000105505F
:030148000107218B
:030149000108F1B9
:03014A00010ABDEA
:03014B00010C891B
:03014C00010E534E
:03014D0001101B83
:03014E000111E1BB
:03014F000113A5F4
:030150000115682E
:0301510001172F64
:030152000118EFA2
:03015300011AACE2
:03015400011C6823
:03015500011E2365
:03015600011FDEA8
:03015700012198EB
:0301580001235030
:0301590001250677
:03015A000126B9C2
:03015B000128690F
:03015C00012A195C
:03015D00012BCAA9
:03015E00012D7BF5
:03015F00012F2647
:030160000130CF9C
:03016100013278F0
:0301620001342144
:030163000135C79C
:0301640001376DF3
:030165000139104D
:03016600013AB1AA
:03016700013C5206
:03016800013DF264
:03016900013F92C1
:03016A0001412D23
:03016B000142C688
:03016C00014464E7
:03016D000145FB4E
:03016E00014792B4
:03016F000149251E
:03017000014ABB86
:03017100014C4EF0
:03017200014DDD5F
:03017300014F6ECB
:030174000150FE39
:03017500015289AB
:030176000154171A
:030177000155A28D
:0301780001572A02
:030179000158B179
:03017A00015A3AED
:03017B00015BBE67
:03017C00015D42E0
:03017D00015EC35D
:03017E00016047D6
:03017F000161C754
:03018000016344D4
:030181000164C056
:0301820001663CD7
:030183000167B859
:03018400016933DB
:03018500016AAB61
:03018600016C24E5
:03018700016D986F
:03018800016F0BF9
:0301890001708082
:03018A000171F30D
:03018B0001736499
:03018C000174D328
:03018D00017640B8
:03018E000177AF47
:03018F0001791CD7
:03019000017A866B
:03019100017BF0FF
:03019200017D5A92
:03019300017EBE2C
:03019400018025C2
:0301950001818C59
:030196000182EEF5
:030197000184528E
:030198000185B22C
:03019900018712C9
:03019A0001887465
:03019B000189D304
:03019C00018B30A4
:03019D00018C8C46
:03019E00018DE4EC
:03019F00018F3D90
:0301A00001909635
:0301A1000191F0D9
:0301A20001934581
:0301A30001949B29
:0301A4000195EFD3
:0301A5000197407F
:0301A6000198922B
:0301A7000199E4D7
:0301A800019B3286
:0301A900019C8036
:0301AA00019DCDE7
:0301AB00019F1A97
:0301AC0001A06649
:0301AD0001A1B0FD
:0301AE0001A2FEAD
:0301AF0001A44464
:0301B00001A58A1C
:0301B10001A6D1D3
:0301B20001A8168B
:0301B30001A95A45
:0301B40001AA9EFF
:0301B50001ABDFBC
:0301B60001AD1F79
:0301B70001AE6036
:0301B80001AF9FF5
:0301B90001B0DEB4
:0301BA0001B21B74
:0301BB0001B35538
:0301BC0001B491FA
:0301BD0001B5CEBB
:0301BE0001B70581
:0301BF0001B83D47
:0301C00001B9730F
:0301C10001BAABD5
:0301C20001BBE09E
:0301C30001BD1467
:0301C40001BE4A2F
:0301C50001BF7BFC
:0301C60001C0ADC8
:0301C70001C1DB98
:0301C80001C30C64
:0301C90001C43B33
:0301CA0001C56804
:0301CB0001C697D3
:0301CC0001C7C3A5
:0301CD0001C8EE78
:0301CE0001CA164D
:0301CF0001CB3F22
:0301D00001CC67F8
:0301D10001CD8FCE
:0301D20001CEB6A5
:0301D30001CFDA7F
:0301D40001D0FE59
:0301D50001D22232
:0301D60001D3460C
:0301D70001D468E8
:0301D80001D589C5
:0301D90001D6AAA2
:0301DA0001D7C882
:0301DB0001D8E464
:0301DC0001DA0441
:0301DD0001DB1F24
:0301DE0001DC3908
:0301DF0001DD55EA
:0301E00001DE70CD
:0301E10001DF89B2
:0301E20001E0A099
:0301E30001E1BA7D
:0301E40001E2CF66
:0301E50001E3E54E
:0301E60001E4FB36
:0301E70001E60F1F
:0301E80001E72309
:0301E90001E833F7
:0301EA0001E946E2
:0301EB0001EA55D1
:0301EC0001EB65BF
:0301ED0001EC74AE
:0301EE0001ED859B
:0301EF0001EE938B
:0301F00001EF9F7D
:0301F10001F0AA70
:0301F20001F1B563
:0301F30001F2BF57
:0301F40001F3C84C
:0301F50001F4D33F
:0301F60001F5DB35
:0301F70001F6E02E
:0301F80001F7EA22
:0301F90001F8EE1C
:0301FA0001F9F315
:0301FB0001FAF610
:0301FC0001FBFB09
:0301FD0001FCFE04
:0301FE0001FDFF01
:0301FF0001FF00FD
:00000001ff
