:020000040000FA
:0200000003FDFE
:0200010003F703
:0200020003F009
:0200030003EA0E
:0200040003E413
:0200050003DF17
:0200060003D91C
:0200070003D420
:0200080003CF24
:0200090003C82A
:02000A0003C32E
:02000B0003BE32
:02000C0003B936
:02000D0003B33B
:02000E0003AD40
:02000F0003A745
:0200100003A348
:02001100039E4C
:02001200039950
:02001300039553
:02001400038E59
:0200150003895D
:02001600038362
:02001700037F65
:02001800037B68
:0200190003766C
:02001A00037170
:02001B00036D73
:02001C00036679
:02001D0003637B
:02001E00035E7F
:02001F00035983
:02002000035388
:02002100034F8B
:02002200034B8E
:02002300034692
:02002400034295
:02002500033A9C
:0200260003369F
:020027000332A2
:02002800032FA4
:02002900032CA6
:02002A000327AA
:02002B000321AF
:02002C00031DB2
:02002D000319B5
:02002E000315B8
:02002F000313B9
:02003000030EBD
:020031000309C1
:020032000305C4
:020033000302C6
:0200340002FDCB
:0200350002F8CF
:0200360002F3D3
:0200370002EED7
:0200380002EBD9
:0200390002E9DA
:02003A0002E5DD
:02003B0002E2DF
:02003C0002DFE1
:02003D0002DBE4
:02003E0002D4EA
:02003F0002D1EC
:0200400002CDEF
:0200410002CBF0
:0200420002C5F5
:0200430002C4F5
:0200440002BFF9
:0200450002BCFB
:0200460002BAFC
:0200470002B6FF
:0200480002B103
:0200490002AC07
:02004A0002AA08
:02004B0002A50C
:02004C0002A20E
:02004D00029F10
:02004E00029D11
:02004F00029815
:02005000029418
:02005100029318
:0200520002901A
:02005300028C1D
:0200540002891F
:02005500028324
:02005600028224
:02005700028025
:02005800027A2A
:0200590002772C
:02005A0002732F
:02005B00027130
:02005C00026E32
:02005D00026C33
:02005E00026836
:02005F00026439
:0200600002623A
:0200610002613A
:02006200025C3E
:02006300025841
:02006400025543
:02006500025443
:02006600025145
:02006700024D48
:0200680002494B
:0200690002484B
:02006A0002474B
:02006B00024051
:02006C00023F51
:02006D00023E51
:02006E00023A54
:02006F00023756
:02007000023557
:02007100023358
:0200720002305A
:02007300022E5B
:02007400022B5D
:0200750002285F
:02007600022561
:02007700022461
:02007800022064
:02007900021D66
:02007A00021B67
:02007B00021968
:02007C0002156B
:02007D0002136C
:02007E00020F6F
:02007F00020D70
:02008000020C70
:02008100020972
:02008200020674
:02008300020376
:02008400020276
:02008500020077
:0200860001FE79
:0200870001FD79
:0200880001F67F
:0200890001F57F
:02008A0001F380
:02008B0001F181
:02008C0001EE83
:02008D0001EB85
:02008E0001E986
:02008F0001E886
:0200900001E687
:0200910001E28A
:0200920001E18A
:0200930001E189
:0200940001DF8A
:0200950001D98F
:0200960001D790
:0200970001D690
:0200980001D590
:0200990001D292
:02009A0001D291
:02009B0001CC96
:02009C0001CA97
:02009D0001C898
:02009E0001C699
:02009F0001C49A
:0200A00001C499
:0200A10001C29A
:0200A20001BE9D
:0200A30001BC9E
:0200A40001BB9E
:0200A50001BA9E
:0200A60001B89F
:0200A70001B5A1
:0200A80001B4A1
:0200A90001B2A2
:0200AA0001B0A3
:0200AB0001B0A2
:0200AC0001ABA6
:0200AD0001ACA4
:0200AE0001AAA5
:0200AF0001A8A6
:0200B00001A7A6
:0200B10001A4A8
:0200B20001A1AA
:0200B300019EAC
:0200B400019CAD
:0200B500019CAC
:0200B600019BAC
:0200B700019AAC
:0200B8000198AD
:0200B9000196AE
:0200BA000194AF
:0200BB000191B1
:0200BC000191B0
:0200BD00018FB1
:0200BE00018CB3
:0200BF00018AB4
:0200C0000188B5
:0200C1000188B4
:0200C2000186B5
:0200C3000184B6
:0200C4000185B4
:0200C5000182B6
:0200C6000180B7
:0200C700017DB9
:0200C800017DB8
:0200C900017DB7
:0200CA000176BD
:0200CB000179B9
:0200CC000178B9
:0200CD000175BB
:0200CE000173BC
:0200CF000171BD
:0200D000016FBE
:0200D100016EBE
:0200D200016BC0
:0200D300016BBF
:0200D4000169C0
:0200D5000166C2
:0200D6000167C0
:0200D7000165C1
:0200D8000162C3
:0200D9000161C3
:0200DA000160C3
:0200DB00015EC4
:0200DC00015EC3
:0200DD00015EC2
:0200DE00015DC2
:0200DF000157C7
:0200E0000159C4
:0200E1000156C6
:0200E2000154C7
:0200E3000152C8
:0200E4000151C8
:0200E5000151C7
:0200E600014FC8
:0200E700014EC8
:0200E800014DC8
:0200E900014CC8
:0200EA00014BC8
:0200EB00014CC6
:0200EC000146CB
:0200ED000146CA
:0200EE000144CB
:0200EF000143CB
:0200F0000144C9
:0200F1000142CA
:0200F2000140CB
:0200F3000140CA
:0200F400013CCD
:0200F500013DCB
:0200F600013CCB
:0200F7000139CD
:0200F8000139CC
:0200F9000139CB
:0200FA000137CC
:0200FB000134CE
:0200FC000134CD
:0200FD000133CD
:0200FE000130CF
:0200FF000130CE
:020100000130CC
:02010100012DCE
:02010200012BCF
:02010300012ACF
:020104000128D0
:020105000127D0
:020106000127CF
:020107000125D0
:020108000124D0
:020109000126CD
:02010A000125CD
:02010B000124CD
:02010C00011ED2
:02010D00011ED1
:02010E00011DD1
:02010F00011ECF
:02011000011DCF
:020111000119D2
:020112000118D2
:02011300011CCD
:020114000118D0
:020115000117D0
:020116000117CF
:020117000115D0
:020118000114D0
:020119000114CF
:02011A000113CF
:02011B000112CF
:02011C000111CF
:02011D00010FD0
:02011E00010ED0
:02011F00010DD0
:02012000010DCF
:02012100010CCF
:02012200010AD0
:02012300010ACF
:020124000107D1
:020125000105D2
:020126000104D2
:020127000107CE
:020128000105CF
:020129000102D1
:02012A000101D1
:02012B000101D0
:02012C000100D0
:02012D0000FED2
:02012E0000FFD0
:02012F0000FED0
:0201300000FCD1
:0201310000F9D3
:0201320000FCCF
:0201330000FAD0
:0201340000F9D0
:0201350000F6D2
:0201360000F5D2
:0201370000F4D2
:0201380000F4D1
:0201390000F5CF
:02013A0000F5CE
:02013B0000F3CF
:02013C0000F1D0
:02013D0000F2CE
:02013E0000F2CD
:02013F0000F0CE
:0201400000EECF
:0201410000ECD0
:0201420000ECCF
:0201430000EBCF
:0201440000E9D0
:0201450000E9CF
:0201460000EACD
:0201470000E9CD
:0201480000E7CE
:0201490000E6CE
:02014A0000E6CD
:02014B0000E5CD
:02014C0000E4CD
:02014D0000E4CC
:02014E0000E4CB
:02014F0000E4CA
:0201500000E4C9
:0201510000DECE
:0201520000DECD
:0201530000DFCB
:0201540000DFCA
:0201550000DFC9
:0201560000DDCA
:0201570000DBCB
:0201580000D9CC
:0201590000D8CC
:02015A0000D9CA
:02015B0000DAC8
:02015C0000DAC7
:02015D0000D7C9
:02015E0000D4CB
:02015F0000D5C9
:0201600000D6C7
:0201610000D5C7
:0201620000D4C7
:0201630000D3C7
:0201640000D2C7
:0201650000D2C6
:0201660000D2C5
:0201670000D1C5
:0201680000CFC6
:0201690000CDC7
:02016A0000CEC5
:02016B0000CFC3
:02016C0000CAC7
:02016D0000CAC6
:02016E0000CAC5
:02016F0000CBC3
:0201700000C8C5
:0201710000C8C4
:0201720000C9C2
:0201730000C7C3
:0201740000C5C4
:0201750000C6C2
:0201760000C4C3
:0201770000C3C3
:0201780000C4C1
:0201790000C3C1
:02017A0000C1C2
:02017B0000C1C1
:02017C0000C1C0
:02017D0000C1BF
:02017E0000BEC1
:02017F0000BEC0
:0201800000BFBE
:0201810000C0BC
:0201820000BFBC
:0201830000BDBD
:0201840000BCBD
:0201850000BBBD
:0201860000B9BE
:0201870000BBBB
:0201880000BBBA
:0201890000B9BB
:02018A0000B8BB
:02018B0000B7BB
:02018C0000B8B9
:02018D0000B8B8
:02018E0000B6B9
:02018F0000B5B9
:0201900000B5B8
:0201910000B4B8
:0201920000B2B9
:0201930000B5B5
:0201940000B3B6
:0201950000B2B6
:0201960000B2B5
:0201970000B1B5
:0201980000B2B3
:0201990000B1B3
:02019A0000AEB5
:02019B0000ADB5
:02019C0000ACB5
:02019D0000ACB4
:02019E0000AEB1
:02019F0000AEB0
:0201A00000ACB1
:0201A10000AAB2
:0201A20000AAB1
:0201A30000A9B1
:0201A40000A9B0
:0201A50000AAAE
:0201A60000A9AE
:0201A70000A8AE
:0201A80000A9AC
:0201A90000A9AB
:0201AA0000A9AA
:0201AB0000A8AA
:0201AC0000A7AA
:0201AD0000A7A9
:0201AE0000A2AD
:0201AF0000A4AA
:0201B00000A4A9
:0201B10000A3A9
:0201B20000A3A8
:0201B30000A2A8
:0201B40000A1A8
:0201B50000A2A6
:0201B60000A2A5
:0201B70000A1A5
:0201B80000A0A5
:0201B900009FA5
:0201BA00009FA4
:0201BB0000A0A2
:0201BC00009FA2
:0201BD00009CA4
:0201BE00009DA2
:0201BF00009DA1
:0201C000009DA0
:0201C100009BA1
:0201C200009BA0
:0201C300009B9F
:0201C4000098A1
:0201C5000098A0
:0201C60000989F
:0201C70000999D
:0201C80000979E
:0201C90000979D
:0201CA0000969D
:0201CB0000949E
:0201CC0000939E
:0201CD0000939D
:0201CE0000949B
:0201CF0000949A
:0201D00000939A
:0201D10000929A
:0201D20000919A
:0201D300009298
:0201D400009297
:0201D500009197
:0201D600008F98
:0201D700008F97
:0201D800008E97
:0201D900008D97
:0201DA00008E95
:0201DB00009092
:0201DC00008D94
:0201DD00008E92
:0201DE00008F90
:0201DF00008D91
:0201E000008C91
:0201E100008C90
:0201E200008D8E
:0201E300008A90
:0201E400008B8E
:0201E500008A8E
:0201E60000898E
:0201E70000888E
:0201E80000888D
:0201E90000898B
:0201EA0000888B
:0201EB00008989
:0201EC00008988
:0201ED00008888
:0201EE0000858A
:0201EF00008589
:0201F000008588
:0201F100008686
:0201F200008586
:0201F300008684
:0201F400008584
:0201F500008385
:0201F600008384
:0201F700008581
:0201F800008184
:0201F900008282
:0201FA00008281
:0201FB00008280
:0201FC00008081
:0201FD00008080
:0201FE0000807F
:0201FF0000807E
:00000001ff
