:020000040000FA
:03000000000004F9
:03000100000402F6
:03000200000FF4F8
:030003000023CE09
:03000400003F8535
:0300050000630C89
:03000600008E5910
:0300070000C15FD6
:0300080000FC14E5
:03000900013E6B4A
:03000A0001885A10
:03000B0001D9D642
:03000C000232D3EA
:03000D0002934714
:03000E0002FB26CC
:03000F00036A661B
:0300100003E0FC0E
:03001100005EDEB0
:0300120000E40007
:0300130001705920
:030014000203DD07
:03001500029E84C4
:0300160003404163
:0300170003E90CEE
:030018000098DA73
:03001900014FA1F3
:03001A00020D577D
:03001B0002D1F21D
:03001C00039D68D9
:03001D00006FB1C0
:03001E000148C1D5
:03001F0002289024
:03002000030F13B8
:0300210003FC429B
:0300220000F013D8
:0300230001EA7D72
:0300240002EB7676
:0300250003F2F5EE
:030026000100F2E4
:030027000215635C
:0300280003303F63
:0300290000517E05
:03002A0001791643
:03002B0002A6FE2C
:03002C0003DB2EC5
:03002D0001159E1C
:03002E0002564433
:03002F00039D1915
:0300300000EA13D0
:03003100023D2A63
:03003200039656DC
:0300330000F58F46
:03003400025ACCA1
:0300350003C605FA
:030036000137325D
:0300370002AE4BCB
:03003800002B4852
:0300390001AE22F3
:03003A000336CFBB
:03003B0000C549B4
:03003C00025987DF
:03003D0003F38248
:03003E00019331FA
:03003F0003388FF4
:0300400000E39248
:03004100029434F2
:03004200004A6C05
:030043000206357D
:0300440003C7856A
:03004500018E56D3
:03004600035AA1B9
:03004700012C5E2B
:0300480003038629
:0300490000E012C2
:03004A0002C1FBF5
:03004B0000A93ACF
:03004C000295C951
:03004D0000879F8A
:03004E00027EB778
:03004F00007B092A
:03005000027C8EA1
:03005100008341E8
:03005200028F1A00
:0300530000A012F8
:0300540002B623CE
:0300550000D14691
:0300560002F1763E
:030057000116ABE4
:030058000340DE84
:0300590001700B28
:03005A0003A429D3
:03005B0001DD3490
:03005C00001B2462
:03005D00025DF44D
:03005E0000A59D5D
:03005F0002F21991
:03006000014362F7
:030061000399738D
:0300620001F44462
:030063000053D077
:0300640002B811CE
:0300650001210274
:03006600038E9C6A
:030067000200D9BB
:030068000077B46A
:0300690002F32778
:03006A0001732DF2
:03006B0003F7BEDA
:03006C000280D738
:03006D00010E720F
:03006E0003A08864
:03006F0002371441
:0300700000D211AA
:0300710003717A9E
:030072000215482C
:0300730000BD7756
:03007400036A011B
:03007500021AE18B
:0300760000D011A6
:0300770003898D6D
:0300780002474FED
:0300790001095129
:03007A0003CF9021
:03007B00029A05E1
:03007C000168AB6D
:03007D00003B7FC6
:03007E00031279F1
:03007F0001ED96FA
:0300800000CCD1E0
:0300810003B024A5
:0300820002978B57
:03008300018300F6
:0300840000728087
:030085000366050A
:03008600025D8A8E
:0300870001590B11
:030088000058829B
:03008900035BEC2A
:03008A00026344CA
:03008B00016E847F
:03008C00007DA94B
:03008D000390AD30
:03008E0002A78D39
:03008F0001C24368
:0300900000E0CCC1
:0300910000032247
:03009200032941FE
:03009300025326EF
:030094000180CB1D
:0300950000B22B8B
:0300960003E74439
:0300970003201033
:03009800025C8C7B
:03009900019CB215
:03009A0000E07F04
:03009B000027EE4D
:03009C000372FCF0
:03009D0002C1A4F9
:03009E000213E268
:03009F000169B242
:0300A00000C3108A
:0300A100001FF845
:0300A20003806573
:0300A30002E45420
:0300A400024BC14B
:0300A50001B6A8F9
:0300A6000125052C
:0300A7000096D3ED
:0300A800000C1039
:0300A9000384B716
:0300AA000300C48C
:0300AB000280349C
:0300AC000203024A
:0300AD0001892C9A
:0300AE000112AD8F
:0300AF00009F812E
:0300B000002FA579
:0300B10003C31571
:0300B2000359CD22
:0300B30002F3CA8B
:0300B400029108AE
:0300B50002318491
:0300B60001D53A37
:0300B700017C26A3
:0300B800012645D9
:0300B90000D393DE
:0300BA0000840DB2
:0300BB000037AF5C
:0300BC0003EE76DA
:0300BD0003A85F36
:0300BE0003656572
:0300BF0003258690
:0300C00002E8BE95
:0300C10002AF0A81
:0300C2000278675A
:0300C3000244D024
:0300C400021444DF
:0300C50001E6BE93
:0300C60001BC3B3F
:0300C7000194B8E9
:0300C80001703292
:0300C900014EA63F
:0300CA0001300FF3
:0300CB0001146DB0
:0300CC0000FBBA7C
:0300CD0000E5F457
:0300CE0000D31745
:0300CF0000C32249
:0300D00000B60F68
:0300D10000ABDEA3
:0300D20000A489FE
:0300D30000A00F7B
:0300D400009E6D1E
:0300D500009F9EEB
:0300D60000A3A1E3
:0300D70000AA7309
:0300D80000B40F62
:0300D90000C074F0
:0300DA0000CF9FB5
:0300DB0000E18CB5
:0300DC0000F639F2
:0300DD00010DA36F
:0300DE000127C730
:0300DF000144A138
:0300E00001643187
:0300E10001867124
:0300E20001AB600F
:0300E30001D2FB4C
:0300E40001FD3FDC
:0300E500022A2AC2
:0300E6000259B804
:0300E700028BE7A2
:0300E80002C0B49F
:0300E90002F81DFD
:0300EA0003321EC0
:0300EB00036EB6EB
:0300EC0003ADE081
:0300ED0003EF9C82
:0300EE000033E6F6
:0300EF00007ABBD9
:0300F00000C41A2F
:0300F100010FFFFD
:0300F200015E6745
:0300F30001AF5109
:0300F4000202B94C
:0300F50002589E10
:0300F60002B0FD58
:0300F700030BD226
:0300F80003691C7D
:0300F90003C8D960
:0300FA00002B05D3
:0300FB00008F9ED5
:0300FC0000F6A269
:0300FD0001600F90
:0300FE0001CBE152
:0300FF00023A17AB
:0301000002AAAFA1
:03010100031DA536
:030102000392F76E
:03010300000AA44B
:030104000084A8CC
:03010500010102F3
:03010600017FAFC7
:030107000200AD46
:030108000283F976
:0301090003099255
:03010A00039175E9
:03010B00001B9F37
:03010C0000A80E3A
:03010D000136C1F7
:03010E0001C7B571
:03010F00025AE8A9
:0301100002F058A2
:030111000388015F
:030112000021E3E6
:0301130000BDFC30
:03011400015C4843
:0301150001FCC525
:03011600029F73D2
:0301170003444E50
:0301180003EB54A2
:03011900009484CB
:03011A00013FDBC7
:03011B0001ED579C
:03011C00029CF64C
:03011D00034EB6D8
:03011E0000029547
:03011F0000B89194
:030120000170A8C3
:03012100022AD8D7
:0301220002E71ED3
:0301230003A57AB7
:030124000065E88B
:0301250001286747
:0301260001ECF5F4
:0301270002B3918F
:03012800037C371E
:030129000046E6A7
:03012A0001139C22
:03012B0001E25896
:03012C0002B31704
:03012D000385D770
:03012E00005A97DD
:03012F0001315546
:03013000020A0EB2
:0301310002E4C124
:0301320003C16D99
:0301330000A00E1B
:030134000180A4A3
:0301350002632C36
:030136000347A5D7
:03013700002E0D8A
:030138000116624B
:030139000200A31E
:03013A0002ECCD07
:03013B0003DADF05
:03013C0000CAD620
:03013D0001BCB250
:03013E0002B0719B
:03013F0003A61004
:03014000009D8E91
:030141000196E93B
:0301420002922006
:03014300038F31F6
:03014400008E1A10
:03014500018ED94F
:0301460002916EB5
:030147000395D548
:03014800009C0E0A
:0301490001A416F8
:03014A0002ADED16
:03014B0003B99065
:03014C0000C6FEEC
:03014D0001D635A3
:03014E0002E73491
:03014F0003F9F9B8
:03015000010E821B
:030151000224CDB8
:03015200033CDA91
:030153000056A7AC
:0301540001723203
:03015500028F799D
:0301560003AE7B7A
:0301570000CF36A0
:0301580001F1A909
:030159000315D2B9
:03015A00003BB0B7
:03015B00016342FB
:03015C00028C858D
:03015D0003B7786D
:03015E0000E419A1
:03015F0002126821
:03016000034263F4
:030161000074081F
:0301620001A7559D
:0301630002DC4A71
:030164000012E4A2
:03016500014B2328
:030166000285050A
:0301670003C0884A
:0301680000FDABEC
:03016900023C6CE9
:03016A00037CCB48
:03016B0000BEC60D
:03016C0002025A32
:03016D00034788BD
:03016E00008E4DB3
:03016F0001D6A90D
:03017000032099D0
:03017100006C1C03
:0301720001B9329E
:030173000307D8A7
:0301740000580D23
:0301750001A9D10C
:0301760002FD2067
:030177000051FB39
:0301780001A8607B
:0301790003004E32
:03017A000059C267
:03017B0001B4BD0F
:03017C0003113C30
:03017D00006F3FD1
:03017E0001CEC3EC
:03017F00032FC883
:0301800000924D9D
:0301810001F65034
:03018200035BD04C
:0301830000C2CBEC
:03018400022B400B
:0301850003952FB0
:03018600010095E0
:03018700026D7294
:0301880003DBC5D1
:03018900014B8B9C
:03018A0002BCC4F0
:03018B00002F6FD3
:03018C0001A38A42
:03018D000319153E
:03018E0000900DD1
:03018F00020872F1
:03019000038243A4
:0301910000FD7EF0
:03019200027A22CC
:0301930003F82F3F
:030194000177A24E
:0301950002F87AF3
:03019600007AB834
:0301970001FE580E
:0301980003835B83
:030199000109BF9A
:03019A000291824D
:03019B00001AA4A3
:03019C0001A52496
:03019D000331002B
:03019E0000BE3868
:03019F00024CCA45
:0301A00003DCB5C8
:0301A100016DF7F6
:0301A200030091C6
:0301A30000948045
:0301A4000229C469
:0301A50003C05C38
:0301A600015846B7
:0301A70002F181E1
:0301A800008C0DBB
:0301A9000227E842
:0301AA0003C51179
:0301AB0001638766
:0301AC0003034901
:0301AD0000A45655
:0301AE000246AC5A
:0301AF0003EA4C14
:0301B000018F3488
:0301B100033562B1
:0301B20000DCD698
:0301B30002858F33
:0301B400002F8B8E
:0301B50001DACAA2
:0301B60003874B71
:0301B70001350C03
:0301B80002E40D51
:0301B90000944C63
:0301BA000245C932
:0301BB0003F883C3
:0301BC0001AC781B
:0301BD000361A734
:0301BE0001181114
:0301BF0002CFB3B9
:0301C00000888D27
:0301C10002429D5A
:0301C20003FDE357
:0301C30001BA5E20
:0301C40003780CB1
:0301C5000136EE12
:0301C60002F7013C
:0301C70000B84637
:0301C800027ABAFE
:0301C900003E5D98
:0301CA0002032FFE
:0301CB0003C92D38
:0301CC0001905847
:0301CD000358AE26
:0301CE0001222FDC
:0301CF0002ECD966
:0301D00000B8ACC8
:0301D1000285A6FE
:0301D2000053C710
:0301D30002230EF6
:0301D40003F37AB8
:0301D50001C50A57
:0301D6000397BDCF
:0301D700016B9227
:0301D80003408958
:0301D9000116A06C
:0301DA0002EDD75C
:0301DB0000C62D2E
:0301DC00029FA0DF
:0301DD00007A3174
:0301DE000255DEE9
:0301DF000032A645
:0301E00002108882
:0301E10003EF84A5
:0301E20001CF99B1
:0301E30003B0C5A1
:0301E4000193097B
:0301E5000376633B
:0301E600015AD2E9
:0301E7000340567C
:0301E8000126ED00
:0301E900030E986A
:0301EA0000F754C7
:0301EB0002E1220C
:0301EC0000CC0044
:0301ED0002B7EE68
:0301EE0000A4EA80
:0301EF000292F485
:0301F00000820C7E
:0301F10002723067
:0301F20000636047
:0301F30002559A18
:0301F4000048DFE1
:0301F500023D2C9C
:0301F60000328252
:0301F7000228E0FB
:0301F800002044A0
:0301F9000218AF3A
:0301FA0000121FD1
:0301FB00020C945F
:0301FC0000080CEC
:0301FD0002048772
:0301FE00000205F7
:0301FF0002008477
:00000001ff
